{
  "address": "0xCf7Ed3AccA5a467e9e704C703E8D87F634fB0Fc9",
  "abi": [
    {
      "inputs": [
        {
          "internalType": "address",
          "name": "_vrfCoordinatorV2",
          "type": "address"
        },
        {
          "internalType": "uint256",
          "name": "_entranceFee",
          "type": "uint256"
        },
        {
          "internalType": "bytes32",
          "name": "_gasLane",
          "type": "bytes32"
        },
        {
          "internalType": "uint64",
          "name": "_subscriptionId",
          "type": "uint64"
        },
        {
          "internalType": "uint32",
          "name": "_callbackGasLimit",
          "type": "uint32"
        },
        {
          "internalType": "uint256",
          "name": "_interval",
          "type": "uint256"
        }
      ],
      "stateMutability": "nonpayable",
      "type": "constructor"
    },
    {
      "inputs": [
        {
          "internalType": "address",
          "name": "have",
          "type": "address"
        },
        {
          "internalType": "address",
          "name": "want",
          "type": "address"
        }
      ],
      "name": "OnlyCoordinatorCanFulfill",
      "type": "error"
    },
    {
      "inputs": [],
      "name": "Raffle__ContractNotOpen",
      "type": "error"
    },
    {
      "inputs": [],
      "name": "Raffle__NotEnoughFee",
      "type": "error"
    },
    {
      "inputs": [],
      "name": "Raffle__TransferFailed",
      "type": "error"
    },
    {
      "inputs": [
        {
          "internalType": "uint256",
          "name": "currentBalance",
          "type": "uint256"
        },
        {
          "internalType": "uint256",
          "name": "numPlayers",
          "type": "uint256"
        },
        {
          "internalType": "uint256",
          "name": "raffleState",
          "type": "uint256"
        }
      ],
      "name": "Raffle__UpkeepNotNeeded",
      "type": "error"
    },
    {
      "anonymous": false,
      "inputs": [
        {
          "indexed": true,
          "internalType": "address",
          "name": "player",
          "type": "address"
        }
      ],
      "name": "RaffleEnter",
      "type": "event"
    },
    {
      "anonymous": false,
      "inputs": [
        {
          "indexed": true,
          "internalType": "uint256",
          "name": "requestId",
          "type": "uint256"
        }
      ],
      "name": "RequestedRaffleWinner",
      "type": "event"
    },
    {
      "anonymous": false,
      "inputs": [
        {
          "indexed": true,
          "internalType": "address",
          "name": "winner",
          "type": "address"
        }
      ],
      "name": "WinnerPicked",
      "type": "event"
    },
    {
      "inputs": [
        {
          "internalType": "bytes",
          "name": "",
          "type": "bytes"
        }
      ],
      "name": "checkUpkeep",
      "outputs": [
        {
          "internalType": "bool",
          "name": "upkeepNeeded",
          "type": "bool"
        },
        {
          "internalType": "bytes",
          "name": "",
          "type": "bytes"
        }
      ],
      "stateMutability": "nonpayable",
      "type": "function"
    },
    {
      "inputs": [],
      "name": "enterRaffle",
      "outputs": [],
      "stateMutability": "payable",
      "type": "function"
    },
    {
      "inputs": [],
      "name": "getEntranceFee",
      "outputs": [
        {
          "internalType": "uint256",
          "name": "",
          "type": "uint256"
        }
      ],
      "stateMutability": "view",
      "type": "function"
    },
    {
      "inputs": [],
      "name": "getInterval",
      "outputs": [
        {
          "internalType": "uint256",
          "name": "",
          "type": "uint256"
        }
      ],
      "stateMutability": "view",
      "type": "function"
    },
    {
      "inputs": [],
      "name": "getLatestTimeStamp",
      "outputs": [
        {
          "internalType": "uint256",
          "name": "",
          "type": "uint256"
        }
      ],
      "stateMutability": "view",
      "type": "function"
    },
    {
      "inputs": [],
      "name": "getNumWords",
      "outputs": [
        {
          "internalType": "uint256",
          "name": "",
          "type": "uint256"
        }
      ],
      "stateMutability": "pure",
      "type": "function"
    },
    {
      "inputs": [],
      "name": "getNumberOfPlayers",
      "outputs": [
        {
          "internalType": "uint256",
          "name": "",
          "type": "uint256"
        }
      ],
      "stateMutability": "view",
      "type": "function"
    },
    {
      "inputs": [
        {
          "internalType": "uint256",
          "name": "_index",
          "type": "uint256"
        }
      ],
      "name": "getPlayer",
      "outputs": [
        {
          "internalType": "address",
          "name": "",
          "type": "address"
        }
      ],
      "stateMutability": "view",
      "type": "function"
    },
    {
      "inputs": [],
      "name": "getRaffleState",
      "outputs": [
        {
          "internalType": "enum Raffle.RaffleState",
          "name": "",
          "type": "uint8"
        }
      ],
      "stateMutability": "view",
      "type": "function"
    },
    {
      "inputs": [],
      "name": "getRecentWinner",
      "outputs": [
        {
          "internalType": "address",
          "name": "",
          "type": "address"
        }
      ],
      "stateMutability": "view",
      "type": "function"
    },
    {
      "inputs": [],
      "name": "getRequestComfirmations",
      "outputs": [
        {
          "internalType": "uint256",
          "name": "",
          "type": "uint256"
        }
      ],
      "stateMutability": "pure",
      "type": "function"
    },
    {
      "inputs": [],
      "name": "getWinnerChance",
      "outputs": [
        {
          "internalType": "uint256",
          "name": "",
          "type": "uint256"
        }
      ],
      "stateMutability": "view",
      "type": "function"
    },
    {
      "inputs": [
        {
          "internalType": "bytes",
          "name": "",
          "type": "bytes"
        }
      ],
      "name": "performUpkeep",
      "outputs": [],
      "stateMutability": "nonpayable",
      "type": "function"
    },
    {
      "inputs": [
        {
          "internalType": "uint256",
          "name": "requestId",
          "type": "uint256"
        },
        {
          "internalType": "uint256[]",
          "name": "randomWords",
          "type": "uint256[]"
        }
      ],
      "name": "rawFulfillRandomWords",
      "outputs": [],
      "stateMutability": "nonpayable",
      "type": "function"
    }
  ],
  "transactionHash": "0x45659608a349beadf241e6fc1c8aaa70f567b196014aa16d241a5fe0db92231e",
  "args": [
    "0x5FbDB2315678afecb367f032d93F642f64180aa3",
    "10000000000000000",
    "0x79d3d8832d904592c0bf9818b621522c988bb8b0c05cdc3b15aea1b6e8db0c15",
    "1",
    "500000",
    "30"
  ],
  "numDeployments": 1,
  "solcInputHash": "45effb804d6b25ed5fead4e8e9133283",
  "bytecode": "0x6101606040523480156200001257600080fd5b506040516200189c3803806200189c833981810160405281019062000038919062000294565b858073ffffffffffffffffffffffffffffffffffffffff1660808173ffffffffffffffffffffffffffffffffffffffff1681525050508460a081815250508573ffffffffffffffffffffffffffffffffffffffff1660c08173ffffffffffffffffffffffffffffffffffffffff16815250508360e081815250508267ffffffffffffffff166101008167ffffffffffffffff16815250508163ffffffff166101208163ffffffff16815250506000600160146101000a81548160ff021916908360018111156200010d576200010c62000330565b5b0217905550426002819055508061014081815250505050505050506200035f565b600080fd5b600073ffffffffffffffffffffffffffffffffffffffff82169050919050565b6000620001608262000133565b9050919050565b620001728162000153565b81146200017e57600080fd5b50565b600081519050620001928162000167565b92915050565b6000819050919050565b620001ad8162000198565b8114620001b957600080fd5b50565b600081519050620001cd81620001a2565b92915050565b6000819050919050565b620001e881620001d3565b8114620001f457600080fd5b50565b6000815190506200020881620001dd565b92915050565b600067ffffffffffffffff82169050919050565b6200022d816200020e565b81146200023957600080fd5b50565b6000815190506200024d8162000222565b92915050565b600063ffffffff82169050919050565b6200026e8162000253565b81146200027a57600080fd5b50565b6000815190506200028e8162000263565b92915050565b60008060008060008060c08789031215620002b457620002b36200012e565b5b6000620002c489828a0162000181565b9650506020620002d789828a01620001bc565b9550506040620002ea89828a01620001f7565b9450506060620002fd89828a016200023c565b93505060806200031089828a016200027d565b92505060a06200032389828a01620001bc565b9150509295509295509295565b7f4e487b7100000000000000000000000000000000000000000000000000000000600052602160045260246000fd5b60805160a05160c05160e0516101005161012051610140516114cd620003cf6000396000818161082c015261089a015260006106f8015260006106d5015260006106b401526000610678015260008181610340015261044a01526000818161038a01526103de01526114cd6000f3fe6080604052600436106100dd5760003560e01c8063473f1ddc1161007f57806391ad27b41161005957806391ad27b41461027e5780639e35072d146102a9578063e55ae4e8146102d4578063fd6673f514610311576100dd565b8063473f1ddc146101ea57806353a2c19a146102155780636e04ff0d14610240576100dd565b80631fe543e3116100bb5780631fe543e3146101635780632cfcc5391461018c578063320229eb146101965780634585e33b146101c1576100dd565b806309bc33a7146100e25780630a75a4fa1461010d578063115cbaf514610138575b600080fd5b3480156100ee57600080fd5b506100f761033c565b6040516101049190610c26565b60405180910390f35b34801561011957600080fd5b50610122610364565b60405161012f9190610c26565b60405180910390f35b34801561014457600080fd5b5061014d610371565b60405161015a9190610cb8565b60405180910390f35b34801561016f57600080fd5b5061018a60048036038101906101859190610e6c565b610388565b005b610194610448565b005b3480156101a257600080fd5b506101ab6105b7565b6040516101b89190610c26565b60405180910390f35b3480156101cd57600080fd5b506101e860048036038101906101e39190610f23565b6105c1565b005b3480156101f657600080fd5b506101ff6107b1565b60405161020c9190610fb1565b60405180910390f35b34801561022157600080fd5b5061022a6107db565b6040516102379190610c26565b60405180910390f35b34801561024c57600080fd5b5061026760048036038101906102629190611081565b6107ea565b604051610275929190611164565b60405180910390f35b34801561028a57600080fd5b50610293610896565b6040516102a09190610c26565b60405180910390f35b3480156102b557600080fd5b506102be6108be565b6040516102cb9190610c26565b60405180910390f35b3480156102e057600080fd5b506102fb60048036038101906102f69190611194565b6108e2565b6040516103089190610fb1565b60405180910390f35b34801561031d57600080fd5b50610326610929565b6040516103339190610c26565b60405180910390f35b60007f0000000000000000000000000000000000000000000000000000000000000000905090565b6000600361ffff16905090565b6000600160149054906101000a900460ff16905090565b7f000000000000000000000000000000000000000000000000000000000000000073ffffffffffffffffffffffffffffffffffffffff163373ffffffffffffffffffffffffffffffffffffffff161461043a57337f00000000000000000000000000000000000000000000000000000000000000006040517f1cf993f40000000000000000000000000000000000000000000000000000000081526004016104319291906111c1565b60405180910390fd5b6104448282610935565b5050565b7f00000000000000000000000000000000000000000000000000000000000000003410156104a2576040517f046d209600000000000000000000000000000000000000000000000000000000815260040160405180910390fd5b600060018111156104b6576104b5610c41565b5b600160149054906101000a900460ff1660018111156104d8576104d7610c41565b5b1461050f576040517f32c4016500000000000000000000000000000000000000000000000000000000815260040160405180910390fd5b6000339080600181540180825580915050600190039060005260206000200160009091909190916101000a81548173ffffffffffffffffffffffffffffffffffffffff021916908373ffffffffffffffffffffffffffffffffffffffff1602179055503373ffffffffffffffffffffffffffffffffffffffff167f0805e1d667bddb8a95f0f09880cf94f403fb596ce79928d9f29b74203ba284d460405160405180910390a2565b6000600254905090565b60006105db604051806020016040528060008152506107ea565b5090508061064a5747600080549050600160149054906101000a900460ff16600181111561060c5761060b610c41565b5b6040517f584327aa000000000000000000000000000000000000000000000000000000008152600401610641939291906111ea565b60405180910390fd5b60018060146101000a81548160ff0219169083600181111561066f5761066e610c41565b5b021790555060007f000000000000000000000000000000000000000000000000000000000000000073ffffffffffffffffffffffffffffffffffffffff16635d3b1d307f00000000000000000000000000000000000000000000000000000000000000007f000000000000000000000000000000000000000000000000000000000000000060037f000000000000000000000000000000000000000000000000000000000000000060016040518663ffffffff1660e01b8152600401610739959493929190611299565b6020604051808303816000875af1158015610758573d6000803e3d6000fd5b505050506040513d601f19601f8201168201806040525081019061077c9190611301565b9050807fcd6e45c8998311cab7e9d4385596cac867e20a0587194b954fa3a731c93ce78b60405160405180910390a250505050565b6000600160009054906101000a900473ffffffffffffffffffffffffffffffffffffffff16905090565b6000600163ffffffff16905090565b60006060600080600181111561080357610802610c41565b5b600160149054906101000a900460ff16600181111561082557610824610c41565b5b14905060007f000000000000000000000000000000000000000000000000000000000000000060025442610859919061135d565b119050600080600080549050119050600080471190508380156108795750825b80156108825750815b801561088b5750805b955050505050915091565b60007f0000000000000000000000000000000000000000000000000000000000000000905090565b600080600080549050600163ffffffff166108d991906113c0565b90508091505090565b60008082815481106108f7576108f66113f1565b5b9060005260206000200160009054906101000a900473ffffffffffffffffffffffffffffffffffffffff169050919050565b60008080549050905090565b60008080549050826000815181106109505761094f6113f1565b5b60200260200101516109629190611420565b90506000808281548110610979576109786113f1565b5b9060005260206000200160009054906101000a900473ffffffffffffffffffffffffffffffffffffffff16905080600160006101000a81548173ffffffffffffffffffffffffffffffffffffffff021916908373ffffffffffffffffffffffffffffffffffffffff160217905550600067ffffffffffffffff811115610a0257610a01610d29565b5b604051908082528060200260200182016040528015610a305781602001602082028036833780820191505090505b5060009080519060200190610a46929190610b66565b50426002819055506000600160146101000a81548160ff02191690836001811115610a7457610a73610c41565b5b021790555060008173ffffffffffffffffffffffffffffffffffffffff1647604051610a9f90611482565b60006040518083038185875af1925050503d8060008114610adc576040519150601f19603f3d011682016040523d82523d6000602084013e610ae1565b606091505b5050905080610b1c576040517fa1d04b3900000000000000000000000000000000000000000000000000000000815260040160405180910390fd5b8173ffffffffffffffffffffffffffffffffffffffff167f5b690ec4a06fe979403046eaeea5b3ce38524683c3001f662c8b5a829632f7df60405160405180910390a25050505050565b828054828255906000526020600020908101928215610bdf579160200282015b82811115610bde5782518260006101000a81548173ffffffffffffffffffffffffffffffffffffffff021916908373ffffffffffffffffffffffffffffffffffffffff16021790555091602001919060010190610b86565b5b509050610bec9190610bf0565b5090565b5b80821115610c09576000816000905550600101610bf1565b5090565b6000819050919050565b610c2081610c0d565b82525050565b6000602082019050610c3b6000830184610c17565b92915050565b7f4e487b7100000000000000000000000000000000000000000000000000000000600052602160045260246000fd5b60028110610c8157610c80610c41565b5b50565b6000819050610c9282610c70565b919050565b6000610ca282610c84565b9050919050565b610cb281610c97565b82525050565b6000602082019050610ccd6000830184610ca9565b92915050565b6000604051905090565b600080fd5b600080fd5b610cf081610c0d565b8114610cfb57600080fd5b50565b600081359050610d0d81610ce7565b92915050565b600080fd5b6000601f19601f8301169050919050565b7f4e487b7100000000000000000000000000000000000000000000000000000000600052604160045260246000fd5b610d6182610d18565b810181811067ffffffffffffffff82111715610d8057610d7f610d29565b5b80604052505050565b6000610d93610cd3565b9050610d9f8282610d58565b919050565b600067ffffffffffffffff821115610dbf57610dbe610d29565b5b602082029050602081019050919050565b600080fd5b6000610de8610de384610da4565b610d89565b90508083825260208201905060208402830185811115610e0b57610e0a610dd0565b5b835b81811015610e345780610e208882610cfe565b845260208401935050602081019050610e0d565b5050509392505050565b600082601f830112610e5357610e52610d13565b5b8135610e63848260208601610dd5565b91505092915050565b60008060408385031215610e8357610e82610cdd565b5b6000610e9185828601610cfe565b925050602083013567ffffffffffffffff811115610eb257610eb1610ce2565b5b610ebe85828601610e3e565b9150509250929050565b600080fd5b60008083601f840112610ee357610ee2610d13565b5b8235905067ffffffffffffffff811115610f0057610eff610ec8565b5b602083019150836001820283011115610f1c57610f1b610dd0565b5b9250929050565b60008060208385031215610f3a57610f39610cdd565b5b600083013567ffffffffffffffff811115610f5857610f57610ce2565b5b610f6485828601610ecd565b92509250509250929050565b600073ffffffffffffffffffffffffffffffffffffffff82169050919050565b6000610f9b82610f70565b9050919050565b610fab81610f90565b82525050565b6000602082019050610fc66000830184610fa2565b92915050565b600080fd5b600067ffffffffffffffff821115610fec57610feb610d29565b5b610ff582610d18565b9050602081019050919050565b82818337600083830152505050565b600061102461101f84610fd1565b610d89565b9050828152602081018484840111156110405761103f610fcc565b5b61104b848285611002565b509392505050565b600082601f83011261106857611067610d13565b5b8135611078848260208601611011565b91505092915050565b60006020828403121561109757611096610cdd565b5b600082013567ffffffffffffffff8111156110b5576110b4610ce2565b5b6110c184828501611053565b91505092915050565b60008115159050919050565b6110df816110ca565b82525050565b600081519050919050565b600082825260208201905092915050565b60005b8381101561111f578082015181840152602081019050611104565b60008484015250505050565b6000611136826110e5565b61114081856110f0565b9350611150818560208601611101565b61115981610d18565b840191505092915050565b600060408201905061117960008301856110d6565b818103602083015261118b818461112b565b90509392505050565b6000602082840312156111aa576111a9610cdd565b5b60006111b884828501610cfe565b91505092915050565b60006040820190506111d66000830185610fa2565b6111e36020830184610fa2565b9392505050565b60006060820190506111ff6000830186610c17565b61120c6020830185610c17565b6112196040830184610c17565b949350505050565b6000819050919050565b61123481611221565b82525050565b600067ffffffffffffffff82169050919050565b6112578161123a565b82525050565b600061ffff82169050919050565b6112748161125d565b82525050565b600063ffffffff82169050919050565b6112938161127a565b82525050565b600060a0820190506112ae600083018861122b565b6112bb602083018761124e565b6112c8604083018661126b565b6112d5606083018561128a565b6112e2608083018461128a565b9695505050505050565b6000815190506112fb81610ce7565b92915050565b60006020828403121561131757611316610cdd565b5b6000611325848285016112ec565b91505092915050565b7f4e487b7100000000000000000000000000000000000000000000000000000000600052601160045260246000fd5b600061136882610c0d565b915061137383610c0d565b925082820390508181111561138b5761138a61132e565b5b92915050565b7f4e487b7100000000000000000000000000000000000000000000000000000000600052601260045260246000fd5b60006113cb82610c0d565b91506113d683610c0d565b9250826113e6576113e5611391565b5b828204905092915050565b7f4e487b7100000000000000000000000000000000000000000000000000000000600052603260045260246000fd5b600061142b82610c0d565b915061143683610c0d565b92508261144657611445611391565b5b828206905092915050565b600081905092915050565b50565b600061146c600083611451565b91506114778261145c565b600082019050919050565b600061148d8261145f565b915081905091905056fea264697066735822122073a17f19c63dc44034cf0b32b6f87b4c21362b6852c4b0aeacb05eff9880758c64736f6c63430008110033",
  "devdoc": {
    "author": "kiralee.eth",
    "details": "Chainlink VRF v2  Chainlink keepers",
    "kind": "dev",
    "methods": {},
    "title": "",
    "version": 1
  },
  "userdoc": {
    "kind": "user",
    "methods": {},
    "notice": "",
    "version": 1
  },
  "storageLayout": {
    "storage": [
      {
        "astId": 208,
        "contract": "contracts/Raffle.sol:Raffle",
        "label": "s_players",
        "offset": 0,
        "slot": "0",
        "type": "t_array(t_address_payable)dyn_storage"
      },
      {
        "astId": 225,
        "contract": "contracts/Raffle.sol:Raffle",
        "label": "s_recentWinner",
        "offset": 0,
        "slot": "1",
        "type": "t_address_payable"
      },
      {
        "astId": 228,
        "contract": "contracts/Raffle.sol:Raffle",
        "label": "s_raffleState",
        "offset": 20,
        "slot": "1",
        "type": "t_enum(RaffleState)203"
      },
      {
        "astId": 230,
        "contract": "contracts/Raffle.sol:Raffle",
        "label": "s_lastTimeStamp",
        "offset": 0,
        "slot": "2",
        "type": "t_uint256"
      }
    ],
    "types": {
      "t_address_payable": {
        "encoding": "inplace",
        "label": "address payable",
        "numberOfBytes": "20"
      },
      "t_array(t_address_payable)dyn_storage": {
        "base": "t_address_payable",
        "encoding": "dynamic_array",
        "label": "address payable[]",
        "numberOfBytes": "32"
      },
      "t_enum(RaffleState)203": {
        "encoding": "inplace",
        "label": "enum Raffle.RaffleState",
        "numberOfBytes": "1"
      },
      "t_uint256": {
        "encoding": "inplace",
        "label": "uint256",
        "numberOfBytes": "32"
      }
    }
  }
}